{
  "contractName": "Things",
  "abi": [
    {
      "inputs": [
        {
          "internalType": "uint256",
          "name": "",
          "type": "uint256"
        }
      ],
      "name": "indexes",
      "outputs": [
        {
          "internalType": "string",
          "name": "tobebought",
          "type": "string"
        },
        {
          "internalType": "bool",
          "name": "bought",
          "type": "bool"
        }
      ],
      "stateMutability": "view",
      "type": "function"
    },
    {
      "inputs": [
        {
          "internalType": "string",
          "name": "_name",
          "type": "string"
        }
      ],
      "name": "enterItems",
      "outputs": [
        {
          "internalType": "string",
          "name": "",
          "type": "string"
        }
      ],
      "stateMutability": "nonpayable",
      "type": "function"
    },
    {
      "inputs": [
        {
          "internalType": "uint256",
          "name": "index",
          "type": "uint256"
        }
      ],
      "name": "removeItems",
      "outputs": [],
      "stateMutability": "nonpayable",
      "type": "function"
    },
    {
      "inputs": [
        {
          "internalType": "uint256",
          "name": "index",
          "type": "uint256"
        }
      ],
      "name": "retreive",
      "outputs": [
        {
          "internalType": "string",
          "name": "",
          "type": "string"
        },
        {
          "internalType": "bool",
          "name": "",
          "type": "bool"
        }
      ],
      "stateMutability": "view",
      "type": "function"
    },
    {
      "inputs": [],
      "name": "gettot",
      "outputs": [
        {
          "internalType": "uint256",
          "name": "",
          "type": "uint256"
        }
      ],
      "stateMutability": "view",
      "type": "function"
    },
    {
      "inputs": [
        {
          "internalType": "uint256",
          "name": "index",
          "type": "uint256"
        }
      ],
      "name": "toggle",
      "outputs": [
        {
          "internalType": "string",
          "name": "",
          "type": "string"
        },
        {
          "internalType": "bool",
          "name": "",
          "type": "bool"
        }
      ],
      "stateMutability": "nonpayable",
      "type": "function"
    }
  ],
  "bytecode": "0x60806040526000805534801561001457600080fd5b5061092d806100246000396000f3fe608060405234801561001057600080fd5b50600436106100625760003560e01c80635553afb614610067578063751ef7531461011757806392f8eb94146101c7578063cda158d914610277578063da14bde314610295578063fec1c178146102c3575b600080fd5b6100936004803603602081101561007d57600080fd5b81019080803590602001909291905050506103f7565b60405180806020018315158152602001828103825284818151815260200191508051906020019080838360005b838110156100db5780820151818401526020810190506100c0565b50505050905090810190601f1680156101085780820380516001836020036101000a031916815260200191505b50935050505060405180910390f35b6101436004803603602081101561012d57600080fd5b8101908080359060200190929190505050610502565b60405180806020018315158152602001828103825284818151815260200191508051906020019080838360005b8381101561018b578082015181840152602081019050610170565b50505050905090810190601f1680156101b85780820380516001836020036101000a031916815260200191505b50935050505060405180910390f35b6101f3600480360360208110156101dd57600080fd5b810190808035906020019092919050505061053f565b60405180806020018315158152602001828103825284818151815260200191508051906020019080838360005b8381101561023b578082015181840152602081019050610220565b50505050905090810190601f1680156102685780820380516001836020036101000a031916815260200191505b50935050505060405180910390f35b61027f610608565b6040518082815260200191505060405180910390f35b6102c1600480360360208110156102ab57600080fd5b8101908080359060200190929190505050610611565b005b61037c600480360360208110156102d957600080fd5b81019080803590602001906401000000008111156102f657600080fd5b82018360208201111561030857600080fd5b8035906020019184600183028401116401000000008311171561032a57600080fd5b91908080601f016020809104026020016040519081016040528093929190818152602001838380828437600081840152601f19601f820116905080830192505050505050509192919290505050610730565b6040518080602001828103825283818151815260200191508051906020019080838360005b838110156103bc5780820151818401526020810190506103a1565b50505050905090810190601f1680156103e95780820380516001836020036101000a031916815260200191505b509250505060405180910390f35b60606000805483111561040957600080fd5b6104116107b7565b60016000858152602001908152602001600020604051806040016040529081600082018054600181600116156101000203166002900480601f0160208091040260200160405190810160405280929190818152602001828054600181600116156101000203166002900480156104c85780601f1061049d576101008083540402835291602001916104c8565b820191906000526020600020905b8154815290600101906020018083116104ab57829003601f168201915b505050505081526020016001820160009054906101000a900460ff1615151515815250509050806000015181602001519250925050915091565b606060008060016000858152602001908152602001600020905060018160010160006101000a81548160ff02191690831515021790555050915091565b6001602052806000526040600020600091509050806000018054600181600116156101000203166002900480601f0160208091040260200160405190810160405280929190818152602001828054600181600116156101000203166002900480156105eb5780601f106105c0576101008083540402835291602001916105eb565b820191906000526020600020905b8154815290600101906020018083116105ce57829003601f168201915b5050505050908060010160009054906101000a900460ff16905082565b60008054905090565b600060016000838152602001908152602001600020905060006001600080548152602001908152602001600020905080600160008581526020019081526020016000206000820181600001908054600181600116156101000203166002900461067b9291906107d3565b506001820160009054906101000a900460ff168160010160006101000a81548160ff021916908315150217905550905050816001600080548152602001908152602001600020600082018160000190805460018160011615610100020316600290046106e89291906107d3565b506001820160009054906101000a900460ff168160010160006101000a81548160ff021916908315150217905550905050600080815480929190600190039190505550505050565b606060008081548092919060010191905055506040518060400160405280838152602001600015158152506001600080548152602001908152602001600020600082015181600001908051906020019061078b92919061085a565b5060208201518160010160006101000a81548160ff021916908315150217905550905050819050919050565b6040518060400160405280606081526020016000151581525090565b828054600181600116156101000203166002900490600052602060002090601f016020900481019282601f1061080c5780548555610849565b8280016001018555821561084957600052602060002091601f016020900482015b8281111561084857825482559160010191906001019061082d565b5b50905061085691906108da565b5090565b828054600181600116156101000203166002900490600052602060002090601f016020900481019282601f1061089b57805160ff19168380011785556108c9565b828001600101855582156108c9579182015b828111156108c85782518255916020019190600101906108ad565b5b5090506108d691906108da565b5090565b5b808211156108f35760008160009055506001016108db565b509056fea2646970667358221220ad1322ca8b3b2c5acf03818b3aa861eaf2374d69d7635d8d170153e575fd82ae64736f6c634300060c0033",
  "immutableReferences": {},
  "source": "// SPDX-License-Identifier: MIT\r\n\r\npragma solidity ^0.6.12;\r\n\r\ncontract Things {\r\n    uint256 count = 0;\r\n    mapping(uint256 => thing) public indexes;\r\n\r\n    struct thing {\r\n        string tobebought;\r\n        bool bought;\r\n    }\r\n\r\n    thing java;\r\n\r\n    function enterItems(string memory _name) public returns (string memory) {\r\n        count++;\r\n        indexes[count] = thing(_name, false);\r\n        return _name;\r\n    }\r\n\r\n    function removeItems(uint256 index) public {\r\n        thing storage one = indexes[index];\r\n        thing storage two = indexes[count];\r\n        indexes[index] = two;\r\n        indexes[count] = one;\r\n        count--;\r\n    }\r\n\r\n    function retreive(uint256 index) public view returns (string memory, bool) {\r\n        require(index <= count);\r\n        thing memory t = indexes[index];\r\n        return (t.tobebought, t.bought);\r\n    }\r\n\r\n    function gettot() public view returns (uint256) {\r\n        return count;\r\n    }\r\n\r\n    function toggle(uint256 index) public returns (string memory, bool) {\r\n        thing storage t = indexes[index];\r\n        t.bought = true;\r\n    }\r\n}\r\n",
  "sourcePath": "D:\\web3.py\\truffle\\contracts\\Things.sol",
  "compiler": {
    "name": "solc",
    "version": "0.6.12+commit.27d51765.Emscripten.clang"
  },
  "schemaVersion": "3.4.4",
  "updatedAt": "2022-01-08T02:32:18.636Z",
  "devdoc": {
    "kind": "dev",
    "methods": {},
    "version": 1
  },
  "userdoc": {
    "kind": "user",
    "methods": {},
    "version": 1
  }
}